:020000040800F2
:10000000A809002071160008FD030008FF0300087E
:1000100003040008070400080B04000800000000A7
:100020000000000000000000000000000F040008B5
:100030001104000800000000130400081504000863
:100040008B1600088B1600088B1600088B1600080C
:100050008B1600088B1600088B1600088B160008FC
:100060008B1600088B1600088B1600088B160008EC
:100070008B1600088B1600088B1600088B160008DC
:100080008B1600088B1600088B1600088B160008CC
:100090008B1600088B1600088B1600088B160008BC
:1000A0008B1600088B1600088B1600088B160008AC
:1000B0008B1600089F0A00088B1600088B16000894
:1000C0008B1600088B1600088B1600088B1600088C
:1000D0008B160008E90F0008A1120008F1150008AE
:1000E0008B1600088B1600088B1600088B1600086C
:1000F0008B1600088B1600088B1600088B1600085C
:100100008B1600088B1600088B1600088B1600084B
:100110008B1600088B1600088B1600088B1600083B
:100120008B1600088B1600088B1600088B1600082B
:1001300000F002F800F03CF80AA090E8000C8244BD
:100140008344AAF10107DA4501D100F031F8AFF29A
:10015000090EBAE80F0013F0010F18BFFB1A43F0A5
:10016000010318475836000078360000103A24BFC3
:1001700078C878C1FAD8520724BF30C830C144BF0C
:1001800004680C607047000000230024002500264E
:10019000103A28BF78C1FBD8520728BF30C148BFEA
:1001A0000B6070471FB503F086FA1FBD10B510BD78
:1001B00003F0E8F81146FFF7F5FF00F031F803F01F
:1001C00006F903B4FFF7F2FF03BC03F00FF90000D8
:1001D0007C480078162822D17A48407855280BD1DF
:1001E00078488078522807D17648C07976490870D7
:1001F0007448007A754908707248007B55280BD105
:100200007048407B532807D16E48807C7049087045
:100210006C48C07C6F49087000206A4908707047BC
:100220001CB5002455206C494870AA216A48817089
:100230000D21C17200F058FD00F0B8FD4FF4E1301F
:1002400000F0BAFD4FF4E13000F014FF4FF4E1305C
:1002500001F0B6F800F0C8FA00F04CFC00F0E0FA4B
:1002600000F00FFB01214FF4E15000F089FB012069
:100270005A4908604FF4E1514FF0C80000F0DEFB2E
:100280003EE0FFF7A5FF56480078012838D100F07E
:10029000C4FC022000F025FB52490860042000F055
:1002A00020FB514908604B48007849490978CDE95D
:1002B000001046480378444802784B48006801B271
:1002C0004848006800B200F08DFC48480368464882
:1002D0000268474801684348006800F043FA601C20
:1002E000C4B2322C08D100244248006808B9012069
:1002F00000E000203F4908604FF0000038490870D6
:10030000BFE770B504460D46002C04DA64422D2088
:100310003949487002E02020374948700A2094FB90
:10032000F0F100FB11403030C1B2334801710A20B6
:1003300094FBF0F00A2190FBF1F201FB1200303047
:10034000C1B22D48C170642094FBF0F00A2190FBEB
:10035000F1F201FB12003030C1B2274881700D214B
:100360004171002D03DA6D422D21817102E02021BF
:10037000214881710A2095FBF0F100FB11503030CB
:10038000C1B21D4841720A2095FBF0F00A2190FB92
:10039000F1F201FB12003030C1B217480172642043
:1003A00095FBF0F00A2190FBF1F201FB12003030D6
:1003B000C1B21148C1710A218172401C00F0CFFD09
:1003C00070BD000000030020140000201500002074
:1003D00018000020190000203F020020A001214247
:1003E0005C0000200000002004000020100000201D
:1003F0000C000020B40122423D010020704700BFE4
:10040000FEE700BFFEE700BFFEE700BFFEE7704764
:10041000704770477047000000210020674A12684B
:1004200042F48032654B1A6000BF644A126802F4DD
:100430000030491C10B9B1F5A06FF6D15F4A1268BF
:1004400012F4003F01D0012000E00020012842D139
:100450005B4A126842F01002594B1A601A46126841
:1004600022F003021A601A46126842F002021A6071
:10047000524A5268514B5A601A4652685A601A469C
:10048000526842F480625A601A46526822F47C1222
:100490005A601A46526842F4E8125A601A461268C4
:1004A00042F080721A6000BF444A126812F0007F66
:1004B000FAD0424A526822F00302404B5A601A4670
:1004C000526842F002025A6000BF3C4A526802F091
:1004D0000C02082AF9D1704710B5FFF79DFF10BD37
:1004E00010B53648006840F00100344908600846FD
:1004F000406834490840314948600846006832493C
:1005000008402E4908600846006820F480200860F2
:100510000846406820F4FE0048604FF41F008860E1
:10052000FFF7DAFF4FF000602849086010BD10B5F2
:10053000002100200022214B5B6803F00C0121B157
:10054000042906D0082928D107E0214B214C23603B
:1005500027E01F4B1F4C236023E0184B5B6803F41C
:100560007010164B5B6803F48032022303EB90405B
:1005700022B9194B4343174C23600DE00F4B5B68C6
:1005800013F4003F04D0144B4343124C236003E0A8
:100590000F4B43430F4C236003E00D4B0D4C236086
:1005A00000BF00BF054B5B68C3F303130B4CE15C5A
:1005B000084B1B68CB40074C236010BD0010024065
:1005C000002002400000FFF8FFFFF6FE08ED00E00B
:1005D00000127A001C00002000093D0020000020CD
:1005E0000146002901DA484200E00846704770B52C
:1005F00005460C46002D08DA00206A4908604FF0D5
:1006000001006949C1F8B00107E0012065490860AF
:100610004FF000006449C1F8B0012846FFF7E0FF41
:1006200062490880002C08DA0120614908604FF017
:1006300000006049C1F8B00102E000205C49086098
:100640004FF001005C4908602046FFF7C9FF574999
:100650000839088070BD594A904201DA104604E01A
:1006600041F6BC32904200DD1046544A914201DA14
:10067000114604E041F6BC32914200DD114670475C
:100680002DE9F05F04460D46601B4D4908600846A1
:10069000006802F031FF83464A480168584602F07C
:1006A00043FF804646490968474A1268881A02F0A3
:1006B00023FF834645480168584602F035FF8146CE
:1006C000414602F09BFE07464148006802F014FFD5
:1006D0008246394602F092FE064602F0F1FE3C499F
:1006E0000860374800683849086039480068BDE844
:1006F000F09F2DE9F05F04460D46601B3549086008
:100700000846006802F0F8FE83462E480168584605
:1007100002F00AFF80462F4909682F4A1268881A9A
:1007200002F0EAFE834629480168584602F0FCFEC2
:100730008146414602F062FE07462848006802F002
:10074000DBFE8246394602F059FE064602F0B8FE4C
:10075000224908601F4800681F4908601F48006858
:10076000BDE8F09F2DE9F04106460F4614461D46B0
:1007700039463046FFF7BDFF194908602946204633
:10078000FFF77EFF174908600846016814480068B3
:10079000FFF761FF1348016811480068FFF727FF62
:1007A000BDE8F081AC012142000021423C2C014017
:1007B000B881214200802142B081214244E4FFFF00
:1007C0004C000020340000205400002030000020A5
:1007D000500000204000002048000020440000207D
:1007E000380000203C00002008B50121102001F055
:1007F00073FA4FF40050ADF8000010208DF803009C
:1008000003208DF802006946044800F0B1FF4FF460
:100810000051024801F057F808BD000000100140E7
:100820001FB50121084601F064FA0121042001F0FE
:1008300053FA0320ADF80C0004208DF80F000320BC
:100840008DF80E0003A9394800F092FF4FF6FF70B3
:10085000ADF804000020ADF80000ADF80600ADF8DA
:10086000020069464FF0804001F0E6FD0A231A4677
:100870000321580702F0D1F90121880702F00CF991
:100880001FBD1FB50121042001F033FA012108200A
:1008900001F022FAC020ADF80C0004208DF80F0002
:1008A00003208DF80E0003A9214800F061FF4FF6E8
:1008B000FF70ADF804000020ADF80000ADF80600B0
:1008C000ADF8020069461B4801F0B6FD0A231A463E
:1008D0000321184802F0A1F90121164802F0DCF8C2
:1008E0001FBD0146022902D0042916D10AE04FF0AB
:1008F0008040808C00B2104A106000204FF080428F
:1009000090840EE00B482430008800B20A4A106040
:100910000020084A2432108003E00020064A1060BC
:1009200000BF00BF04480068704700000008014095
:10093000000C0140000800405800002008B50121CB
:100940000C2001F0C9F94FF4C850ADF80000102098
:100950008DF8030003208DF802006946344800F04A
:1009600007FF4FF4A040ADF8000010208DF8030001
:1009700003208DF8020069462E4800F0F9FE08BDFC
:1009800030B589B005460C46FFF7D8FF0121C802F3
:1009900001F0A2F90121082001F09EF94FF4204056
:1009A000ADF8200018208DF8230003208DF82200D8
:1009B00008A9204800F0DCFE681E80B2ADF81800DF
:1009C000601E80B2ADF814000020ADF81A00ADF83A
:1009D000160005A9184801F02FFD7020ADF804009D
:1009E0000420ADF808000020ADF80A000820ADF89A
:1009F0000E0001A9104801F05CFD01A90E4801F0AC
:100A0000E3FD01210C4802F053F808210A4802F0E6
:100A10007BF90821084802F08BF90121064802F011
:100A200043F90121044802F037F809B030BD000055
:100A300000080140000C0140002C01407FB5054634
:100A40000C460121022001F054F9681E80B2ADF875
:100A50000800601E80B2ADF804000020ADF80A0066
:100A6000ADF8060001A9204801F0E6FC012211467C
:100A70001D4802F036F81D208DF8000000208DF88A
:100A8000010003208DF8020001208DF80300684664
:100A900001F095FB0121144801F0FEFF7FBD10B568
:100AA0000121114802F0B7FAE0B101210E4802F02D
:100AB000C3FA0E48007818B901200C49087011E0FB
:100AC0000A48007801280DD109480078401C0849DF
:100AD000087008460078142804DD00200870FF2004
:100AE0000249087010BD0000000400405C000020B6
:100AF0005D00002010B500BF082158A000F08BFB5E
:100B0000C82000F028F9002057490870082153A098
:100B100000F081FBC82000F01EF95348007804283B
:100B200057DB51480078001F4F49491C085C3128A9
:100B300026D10020491E08700A214CA000F06BFB52
:100B40004FF4967000F007F94748007814280FDB3F
:100B50004548007813384449491C085C642807D18B
:100B60000020491E08700C2143A000F0F8F938E07D
:100B700000203D490870142143A000F0F0F9BBE7C4
:100B800039480078001F3849491C085C302810D1CA
:100B9000122142A000F0E3F94548006808B901209D
:100BA00000E00020424908604FF000002E49087024
:100BB000A2E72D480078001F2B49491C085C392802
:100BC0000FD10C212CA000F0CAF900202649087092
:100BD00007E0162137A000F0C2F900202249087072
:100BE0008AE710BD2DE9F04704460D4616461F461C
:100BF000DDE908893548C470210A01714571290A67
:100C00008171C671077280F8098080F80A900B2103
:100C1000401C00F000FBBDE8F08710B512480078DA
:100C2000062817D110484078552807D10E488178FA
:100C3000C07841EA002000B2254908600A480179DD
:100C4000407941EA002000B2224908600C2122A02C
:100C500000F085F900200449087010BD41542B496B
:100C60004E510D0A00000000FE01002061742B634C
:100C70006F6E6E310D0A0000C0B6D1C0D2D1C1ACCA
:100C8000BDD30D0A00000000C0B6D1C0D4D9B4CE87
:100C9000B3A2CAD4C1ACBDD30D0A0000C7EBB4F2F5
:100CA000BFAAC1EDD2BBB6CBC0B6D1C00D0A000001
:100CB000B4012242D0A1B3B5C0B6D1C0C4A3BFE92C
:100CC000C3BBD3D0C1ACBDD30D0A00003F0200208E
:100CD0000C000020100000205265636569766520D5
:100CE0004F4B0D0A0000000010B56FF0040001F03A
:100CF000B1FA2A4800682A49B0FBF1F02949087086
:100D0000084600784FF47A7148432749088010BD9F
:100D10000146244A12784A434FF0E0235A610022E8
:100D20009A611A46126942F001021A6100BF4FF03F
:100D3000E022106910F0010F02D010F4803FF6D0CD
:100D40004FF0E022126922F001024FF0E0231A6115
:100D500000229A6170470146134A12884A434FF0B5
:100D6000E0235A6100229A611A46126942F0010298
:100D70001A6100BF4FF0E022106910F0010F02D09D
:100D800010F4803FF6D04FF0E022126922F0010209
:100D90004FF0E0231A6100229A6170471C00002086
:100DA00000127A005E0000206000002010B54FF4B1
:100DB000A06001F0FFF910BD10B592B0044601210A
:100DC000052000F089FF4FF40070ADF840001820B6
:100DD0008DF8430003208DF8420010A99E4800F0D2
:100DE000C7FC4FF48060ADF8400004208DF843004C
:100DF00003208DF8420010A9974800F0B9FC0121AA
:100E0000880300F069FF0C940020ADF83400ADF8C1
:100E10003600ADF83800ADF83C000C20ADF83A00D3
:100E20000CA98E4801F003F801218C4801F08BF8E1
:100E300040218A4801F072F925208DF844000220F3
:100E40008DF845008DF8460001208DF8470011A867
:100E500001F0B5F9002240F22661804801F07FF8E8
:100E6000002240F225517D4801F079F8002240F23D
:100E700027717A4801F073F8012240F22441774843
:100E800001F06DF801224021744801F08DF8012233
:100E90008021724801F088F80121084600F00FFF18
:100EA0006F4802F0CDF86D48001D01906D4802902A
:100EB0001020039040200490002005908020069090
:100EC0000020079008902020099000020A9000203E
:100ED0000B9001A9624802F055F9012202216048F5
:100EE00002F087F900215E4802F077F90E208DF8B4
:100EF000440001208DF8450002208DF846000120B5
:100F00008DF8470011A801F05AF90121084600F0B8
:100F1000D6FE5348143002F093F85048001D01905B
:100F2000514802900020039040200490002005903A
:100F30008020069000200790089020200990C00192
:100F40000A9000200B9001A94548143002F01AF9CC
:100F500001214348143002F040F912B010BD70B5C1
:100F600005460C4600BF414800780028FBD101200F
:100F70003E490870224629463A4802F089F9002184
:100F8000374802F02AF9364844388464012134484D
:100F900002F023F970BD70B5054600242F48008883
:100FA0002E48001D008800212D48143002F015F94C
:100FB0004FF4003002F05DF92948143002F024F9B2
:100FC000C0F1400084B222462749284602F060F969
:100FD00040212348143002F015F901212048143033
:100FE00002F0FBF8E0B270BD10B540F226611B487C
:100FF00001F09DF840B1002240F22661174800F050
:10100000AEFF00201949087040F22441134801F056
:101010008EF828B11648FFF7BEFF1549491E087023
:1010200010BD10B54FF4005002F010F968B14FF444
:10103000005002F01EF90021094802F0CEF801220A
:1010400040F22661054800F08AFF10BD00200849E3
:10105000491E087070470000000801400038014038
:10106000440002407C000020BC0000206200002000
:10107000FD00002010B592B004460121052000F0CB
:101080002BFE0420ADF8400018208DF8430003200B
:101090008DF8420010A9C04800F06AFB0820ADF8A6
:1010A000400004208DF8430003208DF8420010A971
:1010B000B94800F05DFB0121480400F01AFE0C94D1
:1010C0000020ADF83400ADF83600ADF83800ADF8CA
:1010D0003C000C20ADF83A000CA9B04800F0A7FE87
:1010E0000121AE4800F02FFF4021AC4801F016F876
:1010F00026208DF8440002208DF845008DF846002A
:1011000001208DF8470011A801F059F8002240F2A3
:101110002661A24800F023FF002240F225519F489B
:1011200000F01DFF002240F227719C4800F017FFDD
:10113000012240F22441994800F011FF0122402190
:10114000964800F031FF01228021944800F02CFFE6
:101150000121084600F0B3FD914801F071FF8F486E
:10116000001D01908F4802901020039040200490B1
:1011700000200590802006900020079008902020F5
:10118000099000020A9000200B9001A9844801F008
:10119000F9FF01220221824802F02BF80021804849
:1011A00002F01BF811208DF8440001208DF8450055
:1011B00002208DF8460001208DF8470011A800F0AC
:1011C000FEFF0121084600F07AFD7548143801F051
:1011D00037FF7248001D0190734802900020039071
:1011E0004020049000200590802006900020079069
:1011F000089020200990C0010A9000200B9001A9BE
:101200006748143801F0BEFF01216548143801F029
:10121000E4FF12B010BD70B505460C4600BF634830
:1012200000780028FBD10120604908702246294639
:101230005C4802F02DF80021594801F0CEFF5C48CF
:1012400004604FF00101564801F0C7FF70BD70B552
:1012500005460024514800885048001D00880021A0
:101260004F48143801F0B9FF4FF4003002F001F894
:101270004B48143801F0C8FFC0F1400084B2224648
:101280004949284602F004F840214548143801F045
:10129000B9FF01214248143801F09FFFE0B270BD50
:1012A00010B540F226613D4800F041FF40B10022F8
:1012B00040F22661394800F052FE00203B49087098
:1012C00040F22441354800F032FF28B13948FFF799
:1012D000BEFF3849491E087010BD10B54FF40050CC
:1012E00001F0B4FF68B14FF4005001F0C2FF0021DB
:1012F0002B4801F072FF012240F22661274800F0DE
:101300002EFE10BD2B48401E00780A283FD12948E8
:10131000401E407830384FF47A7148432549491EC1
:101320008978303901EBC10202EB011100EB810138
:101330002048401EC078303800EB800001EB4001AF
:101340001C48401E0079303808441B490860194881
:10135000401E407930384FF47A7148431549491E90
:101360008979303901EBC10202EB011100EB8101F7
:101370001048401EC079303800EB800001EB40017E
:101380000C48401E007A303808440C4908600020A0
:101390000849491E08707047000801400044004099
:1013A000800002407E010020BE010020630000207A
:1013B00084000240FF0100200C00002010000020EB
:1013C00010B592B004460121092000F085FC4FF4CD
:1013D0008060ADF8400018208DF8430003208DF8A0
:1013E000420010A99B4800F0C3F94FF40060ADF82B
:1013F000400004208DF8430003208DF8420010A91E
:10140000944800F0B5F90121880400F065FC0C94C3
:101410000020ADF83400ADF83600ADF83800ADF876
:101420003C000C20ADF83A000CA98B4800F0FFFC02
:101430000121894800F087FD4021874800F06EFEB9
:1014400027208DF8440002208DF845008DF84600D5
:1014500001208DF8470011A800F0B1FE002240F2F3
:1014600026617D4800F07BFD002240F225517A483C
:1014700000F075FD002240F22771774800F06FFD03
:10148000012240F22441744800F069FD012240210C
:10149000714800F089FD012280216F4800F084FD31
:1014A0000121084600F00BFC6C4801F0C9FD6A48B8
:1014B000001D01906A480290102003904020049083
:1014C00000200590802006900020079008902020A2
:1014D000099000020A9000200B9001A95F4801F0DA
:1014E00051FE012202215D4801F083FE00215B488C
:1014F00001F073FE0C208DF8440001208DF84500AA
:1015000002208DF8460001208DF8470011A800F058
:1015100056FE0121084600F0D2FB5048143001F07D
:101520008FFD4D48001D01904E4802900020039011
:101530004020049000200590802006900020079015
:10154000089020200990C0010A9000200B9001A96A
:101550004248143001F016FE01214048143001F0D9
:101560003CFE12B010BD70B505460C4600BF3E48AB
:1015700000780028FBD101203B490870224629460B
:10158000374801F085FE0021344801F026FE33483B
:101590001C3804620121314801F01FFE70BD70B596
:1015A000054600242C4800882B48001D0088002197
:1015B0002A48143001F011FE4FF4003001F059FEBA
:1015C0002648143001F020FEC0F1400084B22246CB
:1015D0002449284601F05CFE40212048143001F0E7
:1015E00011FE01211D48143001F0F7FDE0B270BD7D
:1015F00010B540F22661184800F099FD40B1002274
:1016000040F22661144800F0AAFC00201649087038
:1016100040F22441104800F08AFD28B11348FFF73A
:10162000BEFF1249491E087010BD10B54FF400509E
:1016300001F00CFE68B14FF4005001F01AFE0021D9
:10164000064801F0CAFD012240F22661024800F07E
:1016500086FC10BD000C0140004800401C00024008
:1016600080020020C002002064000020010300204E
:101670000948804709480047FEE7FEE7FEE7FEE726
:10168000FEE7FEE7FEE7FEE7FEE7FEE70448054962
:10169000054A064B70470000E104000831010008CC
:1016A000A8030020A8090020A8050020A805002004
:1016B00010B50446CA48844208D10121042000F034
:1016C00025FB0021042000F021FB46E0C5488442B0
:1016D00008D10121082000F019FB0021082000F0AA
:1016E00015FB3AE0C048844208D10121102000F0E7
:1016F0000DFB0021102000F009FB2EE0BB488442C6
:1017000008D10121202000F001FB0021202000F061
:10171000FDFA22E0B648844208D10121402000F0C1
:10172000F5FA0021402000F0F1FA16E0B1488442B9
:1017300008D10121802000F0E9FA0021802000F08A
:10174000E5FA0AE0AC48844207D10121801500F097
:10175000DDFA0021A01500F0D9FA10BD10B5012165
:10176000084600F0D3FA0021012000F0CFFA10BDA6
:101770002DE9F04102460025002600200023002428
:10178000002791F803C00CF00F0591F803C01CF07E
:10179000100F03D091F802C04CEA0505B1F800C063
:1017A0001CF0FF0F31D0146800202BE04FF0010C2B
:1017B0000CFA00F3B1F800C00CEA03069E4220D1F7
:1017C00083004FF00F0C0CFA03F7BC4305FA03FC3F
:1017D0004CEA040491F803C0BCF1280F06D14FF085
:1017E000010C0CFA00FCC2F814C00AE091F803C026
:1017F000BCF1480F05D14FF0010C0CFA00FCC2F807
:1018000010C0401C0828D1D31460B1F800C0BCF14E
:10181000FF0F34DD546800202EE000F1080C4FF07B
:10182000010808FA0CF3B1F800C00CEA03069E4266
:1018300021D183004FF00F0C0CFA03F7BC4305FADB
:1018400003FC4CEA040491F803C0BCF1280F05D155
:1018500000F1080C08FA0CF8C2F8148091F803C0E3
:10186000BCF1480F07D100F1080C4FF0010808FA4D
:101870000CF8C2F81080401C0828CED35460BDE894
:10188000F0814FF6FF710180022181700421C17047
:1018900070470246002093680B4201D0012000E00F
:1018A000002070470146886880B2704702460020D9
:1018B000D3680B4201D0012000E0002070470146B0
:1018C000C86880B2704701617047416170470AB1D2
:1018D000016100E041617047C16070474FF48032A0
:1018E0000A4382618161826182698269704702462E
:1018F0000020424B18684FF68073184040EA0210EF
:1019000008433E4B186070473D49C8617047F0B5C9
:101910000A46002300240021002500F00046B6F10D
:10192000004F02D1354EF16901E0344E7168C0F3C9
:10193000034583B200F44016B6F5401F08D121F0EC
:1019400070612E4E766826F070662C4F7E6012E035
:1019500000F48016B6F5801F06D1032606FA05F4BA
:10196000A14341F0706106E0460D360103FA06F628
:10197000B14341F0706122B1460D360103FA06F61B
:10198000314300F00046B6F1004F02D11B4EF16129
:1019900001E01A4E7160F0BD30B500228B071C0FBC
:1019A0000F2303FA04F2154B08338C1053F824303C
:1019B0009343124C08348D1044F8253023468C1084
:1019C00053F824308C07240F00FA04F423430B4C03
:1019D00008348D1044F8253030BD0A49086070473E
:1019E00000080140000C01400010014000140140BB
:1019F00000180140001C014000200140000001408F
:101A000000002042DC002042DC48006840F0010079
:101A1000DA49086008464068D9490840D749486013
:101A200008460068D7490840D4490860084600685D
:101A300020F4802008600846406820F4FE004860DA
:101A40004FF41F0088607047CC49096821F4803149
:101A5000CA4A11601146096821F480211160B0F56D
:101A6000803F03D0B0F5802F0ED106E0C34909684E
:101A700041F48031C14A116007E0C049096841F46E
:101A8000A021BE4A116000E000BF00BF704710B542
:101A900001460022002300204A11012A02D1B74C3E
:101AA000236806E0022A02D1B44C236A01E0B34C59
:101AB000636A01F01F02012494401C4201D00120FE
:101AC00000E0002010BD70B500240025002600BFF6
:101AD0003120FFF7DCFF0646641CB4F5A06F01D08F
:101AE000002EF5D03120FFF7D2FF08B1012500E02C
:101AF0000025284670BD01460020A04A106820F04D
:101B0000F80040EAC100106070479F4908607047C4
:101B100002460020994B586820F47C1042EA0103E9
:101B20001843964B586070479749086670470146BE
:101B30000020924A506820F003000843506070472C
:101B40008E48406800F00C007047014600208B4A28
:101B5000506820F0F00008435060704701460020B4
:101B6000864A506820F4E0600843506070470146A0
:101B70000020824A506820F4605040EAC100506062
:101B8000704729B17D4A527A02437C4B5A7206E073
:101B90007A4A527AC343DBB21A40784B5A72704782
:101BA0007A490860704701460020744A506820F462
:101BB00040400843506070470021754A11706F4AD9
:101BC00082F82010012802D0042808D103E0012166
:101BD0006F4A117004E005216D4A117000E000BFEA
:101BE00000BF70476B49086070476449096A014348
:101BF000624A11627047674944390860704730B5DE
:101C000000210022002400235C4D6D6805F00C01CA
:101C100021B1042905D0082923D105E05E4D0560D6
:101C200022E05D4D05601FE0544D6D6805F47012B3
:101C3000524D6D6805F48034022505EB92421CB9C3
:101C4000564D554305600BE04C4D6D6815F4003F53
:101C500003D0524D5543056002E04F4D554305609A
:101C600002E04D4D056000BF00BF444D6D6805F0BA
:101C7000F00109094A4D6B5C0568DD4045603F4D48
:101C80006D6805F4E061090A454D6B5C4568DD400F
:101C900085603A4D6D6805F46051C90A404D6B5C32
:101CA0004568DD40C560354D6D6805F44041890BE0
:101CB0003C4D6B5CC568B5FBF3F5056130BD29B1E2
:101CC0002E4A526902432D4B5A6104E02B4A526955
:101CD00082432A4B5A61704729B1284A92690243CC
:101CE000264B9A6104E0254A92698243234B9A610C
:101CF000704729B1214AD2690243204BDA6104E0DE
:101D00001E4AD26982431D4BDA61704729B11B4AD2
:101D1000D2680243194BDA6004E0184AD268824361
:101D2000164BDA60704729B1144A12690243134B0B
:101D30001A6104E0114A12698243104B1A6170471C
:101D400014494039086070470F49C86470470B490F
:101D5000C87170470948406A40F08070074948627E
:101D6000704701460020054A92680A4201D00120CE
:101D700000E000207047014988727047001002405F
:101D80000000FFF8FFFFF6FE00004242D80042428A
:101D9000201002408004424200127A0000093D00F7
:101DA000650000207500002010B50446FC48844200
:101DB00009D101218803FFF7A9FF00214FF48040DA
:101DC000FFF7A4FF32E0F748844209D1012148041B
:101DD000FFF7A9FF00214FF40030FFF7A4FF25E033
:101DE000F148844209D101218804FFF79CFF0021BA
:101DF0004FF48020FFF797FF18E0EC48844209D1A8
:101E00000121C804FFF78FFF00214FF40020FFF7E6
:101E10008AFF0BE0E648844208D101210805FFF75C
:101E200082FF00214FF48010FFF77DFF10BD2DE9E8
:101E3000F04786B005460E460024A24600BFA146E4
:101E40000027B08900B100BF2F462C8A4CF6FF70E6
:101E50000440F08804432C82AC894EF6F310044011
:101E6000B08831890843718908430443AC81AC8A46
:101E70004FF6FF400440B0890443AC8201A8FFF74D
:101E8000BEFEC748874202D1DDF810A001E0DDF8B0
:101E90000CA0A88910F4004F08D00AEBCA0000EB90
:101EA0000A1031684900B0FBF1F807E00AEBCA00FC
:101EB00000EB0A1031688900B0FBF1F86420B8FB30
:101EC000F0F004012009642101FB1089A88910F4B5
:101ED000004F08D0322000EBC900B0FBF1F000F059
:101EE0000700044308E0322000EB09106421B0FB36
:101EF000F1F000F00F0004432C8106B0BDE8F0873C
:101F00004FF41651016000218180C18001810C21B4
:101F1000418100218181704710B502460020108A5E
:101F20004FF2FF0318400B884C8823438C882343CF
:101F3000CC8823431843108210BD002101804180CA
:101F40008180C180704721B1828942F40052828130
:101F500004E082894DF6FF731A4082817047F0B524
:101F600003460024002600250020A1F510676A3FE3
:101F700000D100BF1846C1F3421401F01F0601272B
:101F800007FA06F5012C01D10C3004E0022C01D136
:101F9000103000E014301AB107682F43076002E0E8
:101FA0000768AF430760F0BD10B51AB1838A0B43D1
:101FB000838204E0838ACC43A4B22340838210BD91
:101FC000028A4FF6F0731A400282028A0A430282A2
:101FD000704782894FF2FF731A40828182890A43D7
:101FE0008281704721B1828942F00202828104E03D
:101FF00082894FF6FD731A4082817047028A4FF63C
:10200000DF731A400282028A0A430282704721B1BA
:10201000028A42F48042028204E0028A4BF6FF7395
:102020001A4002827047C1F308028280704701465D
:102030008888C0F308007047818941F001018181DF
:102040007047028BD2B20283028B42EA01220283E2
:102050007047028B02F47F420283028B0A430283A1
:10206000704721B1828A42F02002828204E0828A93
:102070004FF6DF731A408282704721B1828A42F0A4
:102080001002828204E0828A4FF6EF731A40828245
:10209000704721B1828A42F00802828204E0828A7B
:1020A0004FF6F7731A408282704721B1828942F459
:1020B0000042828103E08289C2F30E02828170476E
:1020C00021B1828A42F40062828204E0828A4FF265
:1020D000FF731A4082827047828A4FF6FB731A4060
:1020E0008282828A0A438282704721B1828A42F0C8
:1020F0000202828204E0828A4FF6FD731A408282D5
:10210000704702460020B1F5007F00D100BF138860
:102110000B4201D0012000E00020704701F4007262
:10212000B2F5007F00D100BFCA430280704770B58E
:1021300002460024002300250020A1F510666A3E17
:1021400000D100BFC1F3421501F01F03012606FABA
:1021500003F3012D02D19689334006E0022D02D10E
:10216000168A334001E0968A33400C12012606FAA3
:1021700004F41688344013B10CB1012000E00020B3
:1021800070BD10B500220023A1F510646A3C00D197
:1021900000BF0A1201249440A3B2DC43048010BDA6
:1021A000003801400044004000480040004C00401E
:1021B0000050004031490143314A1160704770B509
:1021C000002100230F22C4780CB32D4C246804F4A2
:1021D000E064C4F5E064210AC1F10403CA40447814
:1021E00004FA03F18478144021430901254C067850
:1021F000A155047804F01F050124AC4005786D1149
:102200004FF0E02606EB8505C5F8004109E00478AB
:1022100004F01F050124AC401B4D0678761145F8EB
:10222000264070BD194A0A400243154B1B1F1A6015
:10223000704739B1124A121D12680243104B1B1D20
:102240001A6006E00E4A121D126882430C4B1B1DD9
:102250001A607047042808D14FF0E021096941F065
:1022600004014FF0E022116107E04FF0E02109691D
:1022700021F004014FF0E022116170470000FA05DF
:102280000CED00E000E400E080E100E080FFFF1FD3
:1022900010B50446FE48844208D10121C014FFF75E
:1022A00035FD0021E014FFF731FDC4E0B4F1804FAB
:1022B00008D101210846FFF736FD00210120FFF774
:1022C00032FDB8E0F348844208D101210220FFF733
:1022D0002AFD00210220FFF726FDACE0EE488442F3
:1022E00008D101210420FFF71EFD00210420FFF783
:1022F0001AFDA0E0E948844208D101210820FFF737
:1023000012FD00210820FFF70EFD94E0E44884420E
:1023100008D101211020FFF706FD00211020FFF752
:1023200002FD88E0DF48844208D101212020FFF728
:10233000FAFC00212020FFF7F6FC7CE0DA4884421A
:1023400008D101214014FFF7E1FC00216014FFF7E0
:10235000DDFC70E0D548844209D10121C804FFF7B3
:10236000D5FC00214FF40020FFF7D0FC63E0D048FB
:10237000844209D101210805FFF7C8FC00214FF470
:102380008010FFF7C3FC56E0CA48844209D10121FE
:102390004805FFF7BBFC00214FF40010FFF7B6FC27
:1023A00049E0C548844208D101214020FFF7BBFC29
:1023B00000214020FFF7B7FC3DE0C048844208D12F
:1023C00001218020FFF7AFFC00218020FFF7ABFC4C
:1023D00031E0BB48844208D101218015FFF7A3FCFE
:1023E0000021A015FFF79FFC25E0B648844209D1E3
:1023F00001210804FFF78AFC00214FF48030FFF729
:1024000085FC18E0B048844209D101214804FFF757
:102410007DFC00214FF40030FFF778FC0BE0AB4867
:10242000844208D101218804FFF770FC00214FF499
:102430008020FFF76BFC10BD00220288944B98426D
:102440000ED0994B98420BD0B0F1804F08D0914BF1
:10245000984205D0904B984202D0904B984204D1BC
:102460004FF68F731A404B881A438D4B984207D012
:102470008C4B984204D04FF6FF431A40CB881A4346
:1024800002808B8883850B880385814B98420BD013
:10249000854B984208D08B4B984205D08A4B984286
:1024A00002D08A4B984201D10B7A038601238382A2
:1024B000704770B5002400220023058C4FF6FE768D
:1024C00035400584028C8388048B4FF68F752C4031
:1024D000B51E2C400D882C43751E2A400D892A43B9
:1024E0004D882A436A4DA8420BD06F4DA84208D0B0
:1024F000744DA84205D0744DA84202D0734DA84235
:1025000013D14FF6F7752A404D892A434FF6FB75D4
:102510002A408D882A434FF6FF652B404FF6FF5522
:102520002B408D892B43CD892B4383800483CD8819
:102530008586028470BD70B5002400220023058CBE
:102540004FF6EF7635400584028C8388048B48F67D
:10255000FF752C404FF6FF452C400D882D0644EAB0
:1025600015444FF6DF752A400D892D0542EA1542C4
:102570004D882D0542EA1542454DA84202D04A4DEC
:10258000A8421BD14FF67F752A404D892D0542EA9E
:1025900015424FF6BF752A408D882D0542EA154237
:1025A0004FF6FF352B404FF2FF752B408D89AD0460
:1025B00043EA1543CD89AD0443EA15438380048380
:1025C000CD880587028470BD70B5002400220023E9
:1025D000058C4FF6FF6635400584028C8388848B1A
:1025E0004FF68F752C404FF6FC752C400D882C4310
:1025F0004FF6FF552A400D892D0642EA15424D88B7
:102600002D0642EA1542224DA84202D0264DA8428C
:102610001BD14FF2FF752A404D892D0642EA154223
:102620004FF6FF352A408D882D0642EA15424EF6B8
:10263000FF752B404DF6FF752B408D892D0543EA24
:102640001543CD892D0543EA154383808483CD88C6
:102650008587028470BD70B5002200230024058C9C
:102660004EF6FF7635400584038C8488828B48F6CD
:10267000FF752A404FF6FF452A400D882D0642EA95
:1026800015424DF6FF752B400D892D0720E0000007
:10269000002C01400004004000080040000C0040F5
:1026A000001000400014004000340140004C014084
:1026B000005001400054014000180040001C004040
:1026C000002000400040014000440140004801401B
:1026D00043EA15434D882D0743EA1543F84DA842B8
:1026E00002D0F84DA84206D14BF6FF752C408D89DB
:1026F000AD0544EA154484808283CD88A0F840501B
:10270000038470BD828B4FF2FF331A408283828B29
:102710000B0642EA134282837047F0B50C46154619
:10272000002200210026078C4EF6FF7C07EA0C07EA
:102730000784828B018C27073E0C40F6FF473A4006
:102740002F0642EA17421F0742EA1742DC4FB842FF
:102750000ED0DC4FB8420BD0B0F1804F08D0DA4F2A
:10276000B84205D0D94FB84202D0D94FB84206D1AD
:102770004DF6FF77394046F48057394305E047F678
:10278000FF57394044F48057394382830184F0BDB8
:10279000828B4FF6F3731A408283828B0A438283C3
:1027A0007047F0B50C461546002200210026078C24
:1027B0004FF6FF6C07EA0C070784828B018C270613
:1027C0003E0C4FF60C773A401F0545EA17473A434F
:1027D000BB4FB8420ED0BB4FB8420BD0B0F1804FC8
:1027E00008D0B94FB84205D0B84FB84202D0B84F60
:1027F000B84206D14FF6FF57394046F48077394347
:1028000005E04FF2FF57394044F480773943828323
:102810000184F0BD028B4FF2FF331A400283028B1A
:102820000B0642EA134202837047F0B50C46154688
:10283000002200210026078C4FF6EF7C07EA0C07E8
:102840000784028B018C27053E0C40F6FF473A4077
:102850001F0742EA17422F0642EA1742984FB84232
:102860000ED0984FB8420BD0B0F1804F08D0964FA1
:10287000B84205D0954FB84202D0954FB84206D124
:102880004FF6DF77394046F01007394305E04FF641
:102890005F77394044F01007394302830184F0BD6B
:1028A000028B4FF6F3731A400283028B0A430283B2
:1028B0007047F0B50C46154600220021068C4FF6F5
:1028C000FE773E400684028B018C4FF60C76324038
:1028D0001E0545EA16463243794EB0420ED0794E77
:1028E000B0420BD0B0F1804F08D0774EB04205D047
:1028F000764EB04202D0764EB04206D14FF6FD760B
:10290000314044F00106314305E04FF6F5763140A1
:1029100044F00106314302830184F0BD70B50546E1
:102920000C46674885420ED0664885420BD0B5F10B
:10293000804F08D06448854205D06448854202D063
:102940006348854200D100E000BF208850B9238948
:10295000A28861882846FFF7ACFFE1882846FFF788
:102960009FFF25E0208804280AD12389A288618856
:102970002846FFF75AFFE1882846FFF74BFF17E08C
:10298000208808280AD12389A28861882846FFF771
:1029900008FFE1882846FFF7FBFE09E02389A288AB
:1029A00061882846FFF7B9FEE1882846FFF7AAFEAE
:1029B00070BD2DE9F04105460C46002601276088D0
:1029C00008B9022600E00026A088012801D10227CC
:1029D00000E001272088A0B92389A28861882846C1
:1029E000FFF767FFE1882846FFF75AFF23893A4639
:1029F00031462846FFF719FFE1882846FFF70AFF0E
:102A000013E02389A28861882846FFF70EFFE1883A
:102A10002846FFF7FFFE23893A4631462846FFF74E
:102A200048FFE1882846FFF73BFFBDE8F0810A88B0
:102A30004B881A438B881A43CB881A430B891A4355
:102A40004B891A438B891A43A0F8442070474FF6EC
:102A5000FF71818000210180C18041800172704737
:102A60000021018041808180C1800181418181817B
:102A7000C1817047002101804180012181800021B6
:102A8000C180018170470021018041808180C18027
:102A9000018141818181704721B1028842F00102A8
:102AA000028004E002884FF6FE731A4002807047ED
:102AB00081B1B0F8442042F40042A0F844200FE075
:102AC000002C014000340140000400400008004098
:102AD000000C0040B0F84420C2F30E02A0F84420DD
:102AE000704710B51AB183890B43838104E0838951
:102AF000CC43A4B22340838110BD8182704741EA58
:102B00000203A0F84830704710B51AB183890B430F
:102B1000838104E08389CC43A4B22340838110BD28
:102B200001894FF6F8721140018170470A46002171
:102B300001894FF68F73194011430181704730B5F9
:102B400004460D4629462046FFF7F0FF208940F055
:102B50000700208130BD2DE9F04104460D461646A0
:102B60001F46602D06D13B46012231462046FFF725
:102B70005CFE05E03B46012231462046FFF799FE08
:102B800029462046FFF7D2FF208940F00700208128
:102B9000BDE8F08130B50C4600210189C9B21D069F
:102BA00042EA154525432943018130BD2DE9F04115
:102BB00005460E4617469846002443463A46314697
:102BC0002846FFF7E7FF2C894FF6F870044044F0E1
:102BD00007044FF68F70044044F070042C81BDE868
:102BE000F081F0B504460D4616461F463B46324678
:102BF00029462046FFF7CEFF208940F480402081FF
:102C0000F0BD0185828270470A46002101884FF697
:102C10008F731940114301807047F0B50C4615467B
:102C20001E460021002200230189028B038C4FF6EF
:102C3000F877394021434FF6FC473A4040F20117FC
:102C40003A434FF6DD773B40370545EA17473B43AC
:102C5000018102830384F0BD0A460021018B4FF6F7
:102C60008F7319401143018370470A460021018B7D
:102C700048F6FF731940130641EA13410183704778
:102C80000A460021818B4FF68F73194011438183CF
:102C900070470A460021818B48F6FF7319401306DE
:102CA00041EA13418183704721B1028842F08002DA
:102CB000028004E002884FF67F731A40028070475A
:102CC00021B1828842F00402828004E082884FF6BB
:102CD000FB731A408280704721B1828842F008025B
:102CE000828004E082884FF6F7731A408280704732
:102CF00021B1828842F00102828004E082884FF68E
:102D0000FE731A40828070470A460021018B4FF6FD
:102D1000F77319401143018370470A460021018B64
:102D20004FF2FF731940130641EA134101837047C4
:102D30000A460021818B4FF6F773194011438183B6
:102D400070470A460021818B4FF2FF73194013062A
:102D500041EA1341818370470A460021018B4FF6F7
:102D6000FB7319401143018370470A460021018B10
:102D70004FF6FF331940130641EA134101837047B0
:102D80000A460021818B4FF6FB7319401143818362
:102D900070470A460021818B4FF6FF331940130616
:102DA00041EA1341818370470A460021018B4FF6A7
:102DB0007F7319401143018370470A460021018B3C
:102DC000C1F30E01130641EA1341018370470A461D
:102DD0000021818B4FF67F73194011438183704727
:102DE0000A460021818BC1F30E01130641EA13410B
:102DF000818370470A460021018C4FF6FD7319400C
:102E00001143018470470A460021018C4FF6F77385
:102E100019401143018470470A460021018C4FF686
:102E2000DF731940130541EA1341018470470A46D4
:102E30000021018C4FF67F731940130541EA1341BD
:102E4000018470470A460021018C4FF6FF53194058
:102E5000130641EA1341018470470A460021018CA0
:102E60004FF2FF731940130641EA13410184704782
:102E70000A460021018C4DF6FF731940130741EA01
:102E800013410184704730B5002301248C40A3B264
:102E9000048CDD43ADB22C400484048C02FA01F5AD
:102EA000ADB22C43048430BD30B5002304248C40E3
:102EB000A3B2048CDD43ADB22C400484048C02FA2E
:102EC00001F5ADB22C43048430BD70B5034600203B
:102ED00000241846183001258D40ACB21D8CE64305
:102EE000B6B235401D8409B1082909D100EB610053
:102EF000056825F0700505600568154305600CE060
:102F00000D1FADB200EB6500056825F4E0450560D6
:102F10000568160645EA1645056070BD21B10288B0
:102F200042F00202028004E002884FF6FD731A406C
:102F30000280704721B1028842F00402028004E05E
:102F400002884FF6FB731A400280704721B18288D5
:102F500042F08002828004E082884FF67F731A403C
:102F60008280704702884FF6F7731A400280028809
:102F70000A430280704782884FF68F731A4082801E
:102F800082880A438280704702894FF6F8731A409C
:102F9000028102890A430281704702894FF67F73DA
:102FA0001A40028102890A43028170478184704776
:102FB0008185704781867047018770478187704798
:102FC000A0F84010704702884FF6FF431A40028075
:102FD00002880A43028070470146888E7047014686
:102FE000088F70470146888F70470146B1F840004E
:102FF00070470146888C70470146088D704702462D
:103000000020138A0B4201D0012000E0002070470D
:10301000CA430282704730B50246002000230024D4
:10302000158A05EA0103958905EA010413B10CB17B
:10303000012000E0002030BDCA430282704700003A
:1030400001684FF6FE72114001600021016041608D
:103050008160C1608C49884208D18B490839496830
:1030600041F00F01884A083A51608AE086491431DC
:10307000884208D184490839496841F0F001824A00
:10308000083A51607DE080492831884208D17E4964
:103090000839496841F470617B4A083A516070E030
:1030A00079493C31884208D177490839496841F467
:1030B0007041754A083A516063E073495031884263
:1030C00008D171490839496841F470216E4A083ABB
:1030D000516056E06C496431884208D16A49083928
:1030E000496841F47001684A083A516049E066490C
:1030F0007831884208D164490839496841F07061E3
:10310000614A083A51603CE06049884206D1011F9B
:10311000096841F00F01021F116032E05B49143170
:10312000884208D15949091F096841F0F001574AFE
:10313000121F116025E055492831884208D15349B2
:10314000091F096841F47061504A121F116018E0AC
:103150004E493C31884208D14C49091F096841F465
:1031600070414A4A121F11600BE0484950318842B1
:1031700007D14649091F096841F47021434A121FCB
:103180001160704710B50022026847F6F0739A4349
:103190000C6A8B6823430C6923434C6923438C6975
:1031A0002343CC6923434C6A23438C6A23431A4349
:1031B0000260CB6843600B6883604B68C36010BDDE
:1031C0000021016041608160C160016141618161F4
:1031D000C161016241628162704721B1026842F0BF
:1031E0000102026004E002684FF6FE731A400260BA
:1031F00070471AB103680B43036002E003688B4316
:1032000003607047416070470146486880B270476C
:1032100001460020002211F0805F03D01B4B083BC9
:103220001A6802E0184B083B1A680A4201D00120D4
:1032300000E00020704710F0805F03D01349091FA1
:10324000086002E0104908394860704701460020D4
:10325000002211F0805F03D00C4B083B1A6802E09B
:10326000094B083B1A680A4201D0012000E0002007
:10327000704710F0805F03D00449091F086002E026
:1032800001490839486070470800024008040240BC
:10329000032A40F2308010F0030C00F0158011F882
:1032A000013BBCF1020F624498BF11F801CB00F85A
:1032B000013B38BF11F8013BA2F1040298BF00F8AE
:1032C00001CB38BF00F8013B11F0030300F0288068
:1032D000083AC0F0088051F8043B083A51F804CB92
:1032E000A0E80810F5E7121D5CBF51F8043B40F858
:1032F000043BAFF30080D20724BF11F8013B11F863
:1033000001CB48BF11F8012B24BF00F8013B00F8A6
:1033100001CB48BF00F8012B7047704770477047DA
:1033200010B5203AC0F00B80B1E81850203AA0E860
:103330001850B1E81850A0E81850BFF4F5AF5FEA94
:10334000027C24BFB1E81850A0E8185044BF18C947
:1033500018C0BDE810405FEA827C24BF51F8043BEE
:1033600040F8043B08BF7047D20728BF31F8023B42
:1033700048BF11F8012B28BF20F8023B48BF00F8D6
:10338000012B7047754600F029F8AE4605006946E6
:10339000534620F00700854618B020B5FEF776F9B1
:1033A000BDE820404FF000064FF000074FF0000846
:1033B0004FF0000B21F00701AC46ACE8C009ACE8C7
:1033C000C009ACE8C009ACE8C0098D4670470446A6
:1033D000AFF300802046FCF7F4FE00000048704781
:1033E000440300200048704748030020014918208A
:1033F000ABBEFEE7260002007047000090EA010F16
:1034000048BF81F0004100F16A81421A3CBF801A36
:1034100089184FEAD0524FF07F4C1CEA410FA2EBC3
:10342000D15318BF9CEA026F00F03B804FF0004C74
:103430004CEA00204CEA012121FA03FC10EB0C0CB1
:103440001ED202F1FF325FEA1C2040EBC25038BFAF
:1034500070471CF07F0F4FEA400C18BFBCF17F4F44
:1034600038BF7047C3F12003994008BF20F0010026
:10347000BCF17F4F38BF7047A0F1C04000F022B9C7
:103480004FEA3C00000A40EBC25028BF1CF0FF0F7F
:103490004FEA400CE6D018BFBCF17F4F38BF7047F1
:1034A000EAE79CEA026F05D010EA5C0F08BF00F063
:1034B0000040704710B500F0B8F800BF64FBBE3E96
:1034C00041000B0ED3F19E0208D950F400034FEADD
:1034D000032323FA02F048BF4042704710B500F0C2
:1034E000A4F800BF49922480002070476FF000428A
:1034F00082EA20007047000010F0004148BF4042BF
:10350000B0FA80F310FA03F2C3F19D030BD051EA35
:10351000C35101EB1220530638BF704700F1010080
:1035200008BF20F0010070474FF47F0C1CEAD01256
:103530001EBF1CEAD11392EA0C0F93EA0C0F00F0A5
:10354000478090EA010F48BF42F480724FF0004C70
:103550004CEA00204CEA012102EB0302A0FB01131C
:10356000A2F50002002918BF43F001035B0028BF49
:103570004FEA330342EB22425FEA132C4CEBC2507A
:103580002EBFBCEB436FB2F57C0F70474FEA036C64
:10359000BCF1004F08BF20F00100B2F57C0F38BF2E
:1035A00070470BD582F0FF0212F5803FC8BF70470D
:1035B00000F1C040D8BF00F00040704700F5000C9B
:1035C0005FEA4C0C48BF7047B0F1C04000F07AB8D9
:1035D00090EA010F0CEAD11348BF42F480726245B1
:1035E00038BF634504D280EA010000F00040704714
:1035F00010B500F01AF800BF8900013E00F007B8CE
:1036000000F009B85FEA410C5FEA1C6C08D080EA60
:10361000010000F057B85FEA400C5FEA1C6CF6D17D
:103620004FF00040A0F5800070470EF1020E2EF022
:10363000030E5EF8044B244204D44FEA4102B2F177
:103640007F4F11D84FEA4003B3F17F4F0CD80ED112
:103650004FEAD07CB2F17F4F0CEB4C0C0CF1020C1A
:1036600008BF4CEBD17C04E04FF0080C01E04FEABE
:10367000D17C0CEB4C0324FA03F404F00704B4F1FE
:10368000040C06D20EEB840CBDE810404CF0010C8B
:103690006047DFE80CF0070802024FF00040A0F599
:1036A000800010BD0846420018BFD2F1807288BF6A
:1036B00000F0004010BD10B5FFF794FE4FF0000180
:1036C000016010BDFF2141EAD050C00570470000E5
:1036D00090EA010F48BF81F000413FF596AE421AD3
:1036E00004D882F00042A0EB020011444FEAD0520D
:1036F0004FF07F4C1CEA410FA2EBD15318BF9CEA5C
:10370000026F4AD04FF0004C4CEA00204CEA0121F5
:1037100021FA03FCB0EB0C0C0FD412F0FE0F36D0E4
:103720005FEA4C001DD5001240EBC25038BF704715
:103730001CF03F0F18BF70470BE0A2F101025FEAD7
:103740001C2040EBC25038BF70471CF07F0F18BFE1
:103750007047C3F12003994014BF401E20F00100C0
:10376000704780084FEA122308BF7047B0FA80FC08
:10377000A2EB0C02CCF1280C60FA0CF093EA122FA9
:1037800004BF00EBC25070474FEAC3707047130A82
:103790005FEADC1008BF7047F6E79CEA026F04D0CE
:1037A00010EA5C0F08BF0020704710B5FFF73DFF1F
:1037B00040DFF63E81F0004070470000DC37000833
:1037C000000000207C0000006C0100085838000850
:1037D0007C0000202C090000880100080000000087
:1037E00000000000000000000000000000000000D9
:1037F000000000000000000000A24A0400000000D9
:103800000000000001020304060708090000F0415F
:103810000000204100000000000000000000000047
:103820000000000000000000000000000000000098
:103830000000000000000000000000000000000088
:10384000000000000001020304010203040607084F
:08385000090204060800000053
:0400000508000131BD
:00000001FF
